{
  "contractName": "voting",
  "abi": [
    {
      "constant": true,
      "inputs": [
        {
          "name": "a",
          "type": "string"
        },
        {
          "name": "b",
          "type": "string"
        }
      ],
      "name": "compareStrings",
      "outputs": [
        {
          "name": "",
          "type": "bool"
        }
      ],
      "payable": false,
      "stateMutability": "view",
      "type": "function"
    },
    {
      "constant": false,
      "inputs": [
        {
          "name": "data",
          "type": "string"
        }
      ],
      "name": "setVote",
      "outputs": [],
      "payable": false,
      "stateMutability": "nonpayable",
      "type": "function"
    },
    {
      "constant": true,
      "inputs": [],
      "name": "getText",
      "outputs": [
        {
          "name": "",
          "type": "string"
        }
      ],
      "payable": false,
      "stateMutability": "view",
      "type": "function"
    },
    {
      "constant": false,
      "inputs": [],
      "name": "vote",
      "outputs": [],
      "payable": false,
      "stateMutability": "nonpayable",
      "type": "function"
    },
    {
      "constant": true,
      "inputs": [],
      "name": "getVote",
      "outputs": [
        {
          "name": "",
          "type": "string"
        }
      ],
      "payable": false,
      "stateMutability": "view",
      "type": "function"
    }
  ],
  "bytecode": "0x608060405234801561001057600080fd5b50610834806100206000396000f30060806040526004361061006d576000357c0100000000000000000000000000000000000000000000000000000000900463ffffffff1680630242f35114610072578063632a9a5214610102578063bed34bba14610119578063e00fe2eb146101e0578063f1772a3314610270575b600080fd5b34801561007e57600080fd5b506100876102d9565b6040518080602001828103825283818151815260200191508051906020019080838360005b838110156100c75780820151818401526020810190506100ac565b50505050905090810190601f1680156100f45780820380516001836020036101000a031916815260200191505b509250505060405180910390f35b34801561010e57600080fd5b5061011761042b565b005b34801561012557600080fd5b506101c6600480360381019080803590602001908201803590602001908080601f0160208091040260200160405190810160405280939291908181526020018383808284378201915050505050509192919290803590602001908201803590602001908080601f016020809104026020016040519081016040528093929190818152602001838380828437820191505050505050919291929050505061062b565b604051808215151515815260200191505060405180910390f35b3480156101ec57600080fd5b506101f5610704565b6040518080602001828103825283818151815260200191508051906020019080838360005b8381101561023557808201518184015260208101905061021a565b50505050905090810190601f1680156102625780820380516001836020036101000a031916815260200191505b509250505060405180910390f35b34801561027c57600080fd5b506102d7600480360381019080803590602001908201803590602001908080601f0160208091040260200160405190810160405280939291908181526020018383808284378201915050505050509192919290505050610741565b005b606060006001541480156102ef57506000600254145b80156102fd57506000600354145b1561033f576040805190810160405280600481526020017f6e6f6e65000000000000000000000000000000000000000000000000000000008152509050610428565b6002546001541380156103555750600354600154135b15610397576040805190810160405280600881526020017f636f6e67726573730000000000000000000000000000000000000000000000008152509050610428565b6001546002541380156103ad5750600354600254135b156103ef576040805190810160405280600381526020017f626a7000000000000000000000000000000000000000000000000000000000008152509050610428565b6040805190810160405280600681526020017f6f7468657273000000000000000000000000000000000000000000000000000081525090505b90565b6105046040805190810160405280600881526020017f636f6e677265737300000000000000000000000000000000000000000000000081525060008054600181600116156101000203166002900480601f0160208091040260200160405190810160405280929190818152602001828054600181600116156101000203166002900480156104fa5780601f106104cf576101008083540402835291602001916104fa565b820191906000526020600020905b8154815290600101906020018083116104dd57829003601f168201915b505050505061062b565b1561052057600160008154809291906001019190505550610629565b6105f96040805190810160405280600381526020017f626a70000000000000000000000000000000000000000000000000000000000081525060008054600181600116156101000203166002900480601f0160208091040260200160405190810160405280929190818152602001828054600181600116156101000203166002900480156105ef5780601f106105c4576101008083540402835291602001916105ef565b820191906000526020600020905b8154815290600101906020018083116105d257829003601f168201915b505050505061062b565b1561061557600260008154809291906001019190505550610628565b6003600081548092919060010191905055505b5b565b6000816040518082805190602001908083835b602083101515610663578051825260208201915060208101905060208303925061063e565b6001836020036101000a038019825116818451168082178552505050505050905001915050604051809103902060001916836040518082805190602001908083835b6020831015156106ca57805182526020820191506020810190506020830392506106a5565b6001836020036101000a03801982511681845116808217855250505050505090500191505060405180910390206000191614905092915050565b60606040805190810160405280600781526020017f64656661756c7400000000000000000000000000000000000000000000000000815250905090565b8060009080519060200190610757929190610763565b5061076061042b565b50565b828054600181600116156101000203166002900490600052602060002090601f016020900481019282601f106107a457805160ff19168380011785556107d2565b828001600101855582156107d2579182015b828111156107d15782518255916020019190600101906107b6565b5b5090506107df91906107e3565b5090565b61080591905b808211156108015760008160009055506001016107e9565b5090565b905600a165627a7a72305820bc5d73c5ef05ad660028911a839cba9b10ae6574251d75de58b417e5e80b09310029",
  "source": "pragma solidity ^0.4.4;\r\n\r\ncontract voting \r\n{\r\n    \r\n   string text;\r\n   int congressDat;\r\n   int bjpDat;\r\n   int otherDat;\r\n\r\n  \r\n    function compareStrings (string a, string b) view returns (bool){\r\n       return keccak256(a) == keccak256(b);\r\n   }\r\n    \r\n     function setVote(string data)\r\n    {\r\n        text = data;\r\n        vote();\r\n\r\n    }\r\n\r\n\r\n    function getText() constant returns (string)\r\n    {\r\n        return \"default\";\r\n    }\r\n\r\n    function vote()\r\n    {\r\n       \r\n        if(compareStrings(\"congress\",text))\r\n        {\r\n            congressDat++;\r\n        }\r\n        else if(compareStrings(\"bjp\",text))\r\n        {\r\n            bjpDat++;\r\n        }\r\n        else\r\n        {\r\n            otherDat++;\r\n        }\r\n    }\r\n    \r\n    function getVote() constant returns (string)\r\n    {\r\n        if(congressDat==0 && bjpDat==0 && otherDat==0)\r\n        {\r\n             return \"none\";\r\n        }\r\n        \r\n        if(congressDat>bjpDat && congressDat>otherDat)\r\n        {\r\n            return \"congress\";\r\n        }\r\n        else if(bjpDat>congressDat && bjpDat>otherDat)\r\n        {\r\n            return \"bjp\";\r\n        }\r\n        else\r\n        {\r\n            return \"others\";\r\n        }\r\n    }\r\n\r\n}\r\n",
  "sourcePath": "C:\\Users\\Ebinezer\\ram\\VotingSys\\voting system\\contracts\\voting.sol",
  "compiler": {
    "name": "solc",
    "version": "0.4.24+commit.e67f0147.Emscripten.clang"
  },
  "schemaVersion": "2.0.0",
  "updatedAt": "2018-06-27T06:04:25.646Z"
}